:0100000004FB
:0100010004FA
:0100020004F9
:0100030004F8
:0100040004F7
:0100050004F6
:0100060004F5
:0100070004F4
:0100080004F3
:0100090004F2
:01000A0004F1
:01000B0004F0
:01000C0004EF
:01000D0004EE
:01000E0004ED
:01000F0004EC
:0100100004EB
:0100110004EA
:0100120004E9
:0100130004E8
:0100140004E7
:0100150004E6
:0100160004E5
:0100170004E4
:0100180004E3
:0100190004E2
:01001A0004E1
:01001B0004E0
:01001C0004DF
:01001D0004DE
:01001E0004DD
:01001F0004DC
:0100200004DB
:0100210004DA
:0100220004D9
:0100230004D8
:0100240004D7
:0100250004D6
:0100260004D5
:0100270004D4
:0100280004D3
:0100290004D2
:01002A0004D1
:01002B0004D0
:01002C0004CF
:01002D0004CE
:01002E0004CD
:01002F0004CC
:0100300004CB
:0100310004CA
:0100320004C9
:0100330004C8
:0100340004C7
:0100350004C6
:0100360004C5
:0100370004C4
:0100380004C3
:0100390004C2
:01003A0004C1
:01003B0004C0
:01003C0004BF
:01003D0004BE
:01003E0004BD
:01003F0004BC
:0100400004BB
:0100410004BA
:0100420004B9
:0100430004B8
:0100440004B7
:0100450004B6
:0100460004B5
:0100470004B4
:0100480004B3
:0100490004B2
:01004A0004B1
:01004B0004B0
:01004C0004AF
:01004D0004AE
:01004E0004AD
:01004F0004AC
:0100500004AB
:0100510004AA
:0100520004A9
:0100530004A8
:0100540004A7
:0100550004A6
:0100560004A5
:0100570004A4
:0100580004A3
:0100590004A2
:01005A0004A1
:01005B0004A0
:01005C00049F
:01005D00049E
:01005E00049D
:01005F00049C
:01006000049B
:01006100049A
:010062000499
:010063000498
:010064000497
:010065000496
:010066000495
:010067000494
:010068000493
:010069000492
:01006A000491
:01006B000490
:01006C00048F
:01006D00048E
:01006E00048D
:01006F00048C
:01007000048B
:01007100048A
:010072000489
:010073000488
:010074000487
:010075000486
:010076000485
:010077000484
:010078000483
:010079000482
:01007A000481
:01007B000480
:01007C00047F
:01007D00047E
:01007E00047D
:01007F00047C
:01008000047B
:01008100047A
:010082000479
:010083000478
:010084000477
:010085000476
:010086000475
:010087000474
:010088000473
:010089000472
:01008A000471
:01008B000470
:01008C00046F
:01008D00046E
:01008E00046D
:01008F00046C
:01009000046B
:01009100046A
:010092000469
:010093000468
:010094000467
:010095000466
:010096000465
:010097000464
:010098000463
:010099000462
:01009A000461
:01009B000460
:01009C00045F
:01009D00045E
:01009E00045D
:01009F00045C
:0100A000045B
:0100A100045A
:0100A2000459
:0100A3000458
:0100A4000457
:0100A5000456
:0100A6000455
:0100A7000454
:0100A8000453
:0100A9000452
:0100AA000451
:0100AB000450
:0100AC00044F
:0100AD00044E
:0100AE00044D
:0100AF00044C
:0100B000044B
:0100B100044A
:0100B2000449
:0100B3000448
:0100B4000447
:0100B5000446
:0100B6000445
:0100B7000444
:0100B8000443
:0100B9000442
:0100BA000441
:0100BB000440
:0100BC00043F
:0100BD00043E
:0100BE00043D
:0100BF00043C
:0100C000043B
:0100C100043A
:0100C2000439
:0100C3000438
:0100C4000437
:0100C5000436
:0100C6000435
:0100C7000434
:0100C8000433
:0100C9000432
:0100CA000431
:0100CB000430
:0100CC00042F
:0100CD00042E
:0100CE00042D
:0100CF00042C
:0100D000042B
:0100D100042A
:0100D2000429
:0100D3000428
:0100D4000427
:0100D5000426
:0100D6000425
:0100D7000424
:0100D8000423
:0100D9000422
:0100DA000421
:0100DB000420
:0100DC00041F
:0100DD00041E
:0100DE00041D
:0100DF00041C
:0100E000041B
:0100E100041A
:0100E2000419
:0100E3000418
:0100E4000417
:0100E5000416
:0100E6000415
:0100E7000414
:0100E8000413
:0100E9000412
:0100EA000411
:0100EB000410
:0100EC00040F
:0100ED00040E
:0100EE00040D
:0100EF00040C
:0100F000040B
:0100F100040A
:0100F2000409
:0100F3000408
:0100F4000407
:0100F5000406
:0100F6000405
:0100F7000404
:0100F8000403
:0100F9000402
:0100FA000401
:0100FB000400
:0100FC0004FF
:0100FD0004FE
:0100FE0004FD
:0100FF0004FC
:0101000004FA
:0101010004F9
:0101020004F8
:0101030004F7
:0101040004F6
:0101050004F5
:0101060004F4
:0101070004F3
:0101080004F2
:0101090004F1
:01010A0004F0
:01010B0004EF
:01010C0004EE
:01010D0004ED
:01010E0004EC
:01010F0004EB
:0101100004EA
:0101110004E9
:0101120004E8
:0101130004E7
:0101140004E6
:0101150004E5
:0101160004E4
:0101170004E3
:0101180004E2
:0101190004E1
:01011A0004E0
:01011B0004DF
:01011C0004DE
:01011D0004DD
:01011E0004DC
:01011F0004DB
:0101200004DA
:0101210004D9
:0101220004D8
:0101230004D7
:0101240004D6
:0101250004D5
:0101260004D4
:0101270004D3
:0101280004D2
:0101290004D1
:01012A0004D0
:01012B0004CF
:01012C0004CE
:01012D0004CD
:01012E0004CC
:01012F0004CB
:0101300004CA
:0101310004C9
:0101320004C8
:0101330004C7
:0101340004C6
:0101350004C5
:0101360004C4
:0101370004C3
:0101380004C2
:0101390004C1
:01013A0004C0
:01013B0004BF
:01013C0004BE
:01013D0004BD
:01013E0004BC
:01013F0004BB
:0101400004BA
:0101410004B9
:0101420004B8
:0101430004B7
:0101440004B6
:0101450004B5
:0101460004B4
:0101470004B3
:0101480004B2
:0101490004B1
:01014A0004B0
:01014B0004AF
:01014C0004AE
:01014D0004AD
:01014E0004AC
:01014F0004AB
:0101500004AA
:0101510004A9
:0101520004A8
:0101530004A7
:0101540004A6
:0101550004A5
:0101560004A4
:0101570004A3
:0101580004A2
:0101590004A1
:01015A0004A0
:01015B00049F
:01015C00049E
:01015D00049D
:01015E00049C
:01015F00049B
:01016000049A
:010161000499
:010162000498
:010163000497
:010164000496
:010165000495
:010166000494
:010167000493
:010168000492
:010169000491
:01016A000490
:01016B00048F
:01016C00048E
:01016D00048D
:01016E00048C
:01016F00048B
:01017000048A
:010171000489
:010172000488
:010173000487
:010174000486
:010175000485
:010176000484
:010177000483
:010178000482
:010179000481
:01017A000480
:01017B00047F
:01017C00047E
:01017D00047D
:01017E00047C
:01017F00047B
:01018000047A
:010181000479
:010182000478
:010183000477
:010184000476
:010185000475
:010186000474
:010187000473
:010188000472
:010189000471
:01018A000470
:01018B00046F
:01018C00046E
:01018D00046D
:01018E00046C
:01018F00046B
:01019000046A
:010191000469
:010192000468
:010193000467
:010194000466
:010195000465
:010196000464
:010197000463
:010198000462
:010199000461
:01019A000460
:01019B00045F
:01019C00045E
:01019D00045D
:01019E00045C
:01019F00045B
:0101A000045A
:0101A1000459
:0101A2000458
:0101A3000457
:0101A4000456
:0101A5000455
:0101A6000454
:0101A7000453
:0101A8000452
:0101A9000451
:0101AA000450
:0101AB00044F
:0101AC00044E
:0101AD00044D
:0101AE00044C
:0101AF00044B
:0101B000044A
:0101B1000449
:0101B2000448
:0101B3000447
:0101B4000446
:0101B5000445
:0101B6000444
:0101B7000443
:0101B8000442
:0101B9000441
:0101BA000440
:0101BB00043F
:0101BC00043E
:0101BD00043D
:0101BE00043C
:0101BF00043B
:0101C000043A
:0101C1000439
:0101C2000438
:0101C3000437
:0101C4000436
:0101C5000435
:0101C6000434
:0101C7000433
:0101C8000432
:0101C9000431
:0101CA000430
:0101CB00042F
:0101CC00042E
:0101CD00042D
:0101CE00042C
:0101CF00042B
:0101D000042A
:0101D1000429
:0101D2000428
:0101D3000427
:0101D4000426
:0101D5000425
:0101D6000424
:0101D7000423
:0101D8000422
:0101D9000421
:0101DA000420
:0101DB00041F
:0101DC00041E
:0101DD00041D
:0101DE00041C
:0101DF00041B
:0101E000041A
:0101E1000419
:0101E2000418
:0101E3000417
:0101E4000416
:0101E5000415
:0101E6000414
:0101E7000413
:0101E8000412
:0101E9000411
:0101EA000410
:0101EB00040F
:0101EC00040E
:0101ED00040D
:0101EE00040C
:0101EF00040B
:0101F000040A
:0101F1000409
:0101F2000408
:0101F3000407
:0101F4000406
:0101F5000405
:0101F6000404
:0101F7000403
:0101F8000402
:0101F9000401
:0101FA000400
:0101FB0004FF
:0101FC0004FE
:0101FD0004FD
:0101FE0004FC
:0101FF0004FB
:0102000004F9
:0102010004F8
:0102020004F7
:0102030004F6
:0102040004F5
:0102050004F4
:0102060004F3
:0102070004F2
:0102080004F1
:0102090004F0
:01020A0004EF
:01020B0004EE
:01020C0004ED
:01020D0004EC
:01020E0004EB
:01020F0004EA
:0102100004E9
:0102110004E8
:0102120004E7
:0102130004E6
:0102140004E5
:0102150004E4
:0102160004E3
:0102170004E2
:0102180004E1
:0102190004E0
:01021A0004DF
:01021B0004DE
:01021C0004DD
:01021D0004DC
:01021E0004DB
:01021F0004DA
:0102200004D9
:0102210004D8
:0102220004D7
:0102230004D6
:0102240004D5
:0102250004D4
:0102260004D3
:0102270004D2
:0102280004D1
:0102290004D0
:01022A0004CF
:01022B0004CE
:01022C0004CD
:01022D0004CC
:01022E0004CB
:01022F0004CA
:0102300004C9
:0102310004C8
:0102320004C7
:0102330004C6
:0102340004C5
:0102350004C4
:0102360004C3
:0102370004C2
:0102380004C1
:0102390004C0
:01023A0004BF
:01023B0004BE
:01023C0004BD
:01023D0004BC
:01023E0004BB
:01023F0004BA
:0102400004B9
:0102410004B8
:0102420004B7
:0102430004B6
:0102440004B5
:0102450004B4
:0102460004B3
:0102470004B2
:0102480004B1
:0102490004B0
:01024A0004AF
:01024B0004AE
:01024C0004AD
:01024D0004AC
:01024E0004AB
:01024F0004AA
:0102500004A9
:0102510004A8
:0102520004A7
:0102530004A6
:0102540004A5
:0102550004A4
:0102560004A3
:0102570004A2
:0102580004A1
:0102590004A0
:01025A00049F
:01025B00049E
:01025C00049D
:01025D00049C
:01025E00049B
:01025F00049A
:010260000499
:010261000498
:010262000497
:010263000496
:010264000495
:010265000494
:010266000493
:010267000492
:010268000491
:010269000490
:01026A00048F
:01026B00048E
:01026C00048D
:01026D00048C
:01026E00048B
:01026F00048A
:010270000489
:010271000488
:010272000487
:010273000486
:010274000485
:010275000484
:010276000483
:010277000482
:010278000481
:010279000480
:01027A00047F
:01027B00047E
:01027C00047D
:01027D00047C
:01027E00047B
:01027F00047A
:010280000479
:010281000478
:010282000477
:010283000476
:010284000475
:010285000474
:010286000473
:010287000472
:010288000471
:010289000470
:01028A00046F
:01028B00046E
:01028C00046D
:01028D00046C
:01028E00046B
:01028F00046A
:010290000469
:010291000468
:010292000467
:010293000466
:010294000465
:010295000464
:010296000463
:010297000462
:010298000461
:010299000460
:01029A00045F
:01029B00045E
:01029C00045D
:01029D00045C
:01029E00045B
:01029F00045A
:0102A0000459
:0102A1000458
:0102A2000457
:0102A3000456
:0102A4000455
:0102A5000454
:0102A6000453
:0102A7000452
:0102A8000451
:0102A9000450
:0102AA00044F
:0102AB00044E
:0102AC00044D
:0102AD00044C
:0102AE00044B
:0102AF00044A
:0102B0000449
:0102B1000448
:0102B2000447
:0102B3000446
:0102B4000445
:0102B5000444
:0102B6000443
:0102B7000442
:0102B8000441
:0102B9000440
:0102BA00043F
:0102BB00043E
:0102BC00043D
:0102BD00043C
:0102BE00043B
:0102BF00043A
:0102C0000439
:0102C1000438
:0102C2000437
:0102C3000436
:0102C4000435
:0102C5000434
:0102C6000433
:0102C7000432
:0102C8000431
:0102C9000430
:0102CA00042F
:0102CB00042E
:0102CC00042D
:0102CD00042C
:0102CE00042B
:0102CF00042A
:0102D0000429
:0102D1000428
:0102D2000427
:0102D3000426
:0102D4000425
:0102D5000424
:0102D6000423
:0102D7000422
:0102D8000421
:0102D9000420
:0102DA00041F
:0102DB00041E
:0102DC00041D
:0102DD00041C
:0102DE00041B
:0102DF00041A
:0102E0000419
:0102E1000418
:0102E2000417
:0102E3000416
:0102E4000415
:0102E5000414
:0102E6000413
:0102E7000412
:0102E8000411
:0102E9000410
:0102EA00040F
:0102EB00040E
:0102EC00040D
:0102ED00040C
:0102EE00040B
:0102EF00040A
:0102F0000409
:0102F1000408
:0102F2000407
:0102F3000406
:0102F4000405
:0102F5000404
:0102F6000403
:0102F7000402
:0102F8000401
:0102F9000400
:0102FA0004FF
:0102FB0004FE
:0102FC0004FD
:0102FD0004FC
:0102FE0004FB
:0102FF0004FA
:0103000004F8
:0103010004F7
:0103020004F6
:0103030004F5
:0103040004F4
:0103050004F3
:0103060004F2
:0103070004F1
:0103080004F0
:0103090004EF
:01030A0004EE
:01030B0004ED
:01030C0004EC
:01030D0004EB
:01030E0004EA
:01030F0004E9
:0103100004E8
:0103110004E7
:0103120004E6
:0103130004E5
:0103140004E4
:0103150004E3
:0103160004E2
:0103170004E1
:0103180004E0
:0103190004DF
:01031A0004DE
:01031B0004DD
:01031C0004DC
:01031D0004DB
:01031E0004DA
:01031F0004D9
:0103200004D8
:0103210004D7
:0103220004D6
:0103230004D5
:0103240004D4
:0103250004D3
:0103260004D2
:0103270004D1
:0103280004D0
:0103290004CF
:01032A0004CE
:01032B0004CD
:01032C0004CC
:01032D0004CB
:01032E0004CA
:01032F0004C9
:0103300004C8
:0103310004C7
:0103320004C6
:0103330004C5
:0103340004C4
:0103350004C3
:0103360004C2
:0103370004C1
:0103380004C0
:0103390004BF
:01033A0004BE
:01033B0004BD
:01033C0004BC
:01033D0004BB
:01033E0004BA
:01033F0004B9
:0103400004B8
:0103410004B7
:0103420004B6
:0103430004B5
:0103440004B4
:0103450004B3
:0103460004B2
:0103470004B1
:0103480004B0
:0103490004AF
:01034A0004AE
:01034B0004AD
:01034C0004AC
:01034D0004AB
:01034E0004AA
:01034F0004A9
:0103500004A8
:0103510004A7
:0103520004A6
:0103530004A5
:0103540004A4
:0103550004A3
:0103560004A2
:0103570004A1
:0103580004A0
:01035900049F
:01035A00049E
:01035B00049D
:01035C00049C
:01035D00049B
:01035E00049A
:01035F000499
:010360000498
:010361000497
:010362000496
:010363000495
:010364000494
:010365000493
:010366000492
:010367000491
:010368000490
:01036900048F
:01036A00048E
:01036B00048D
:01036C00048C
:01036D00048B
:01036E00048A
:01036F000489
:010370000488
:010371000487
:010372000486
:010373000485
:010374000484
:010375000483
:010376000482
:010377000481
:010378000480
:01037900047F
:01037A00047E
:01037B00047D
:01037C00047C
:01037D00047B
:01037E00047A
:01037F000479
:010380000478
:010381000477
:010382000476
:010383000475
:010384000474
:010385000473
:010386000472
:010387000471
:010388000470
:01038900046F
:01038A00046E
:01038B00046D
:01038C00046C
:01038D00046B
:01038E00046A
:01038F000469
:010390000468
:010391000467
:010392000466
:010393000465
:010394000464
:010395000463
:010396000462
:010397000461
:010398000460
:01039900045F
:01039A00045E
:01039B00045D
:01039C00045C
:01039D00045B
:01039E00045A
:01039F000459
:0103A0000458
:0103A1000457
:0103A2000456
:0103A3000455
:0103A4000454
:0103A5000453
:0103A6000452
:0103A7000451
:0103A8000450
:0103A900044F
:0103AA00044E
:0103AB00044D
:0103AC00044C
:0103AD00044B
:0103AE00044A
:0103AF000449
:0103B0000448
:0103B1000447
:0103B2000446
:0103B3000445
:0103B4000444
:0103B5000443
:0103B6000442
:0103B7000441
:0103B8000440
:0103B900043F
:0103BA00043E
:0103BB00043D
:0103BC00043C
:0103BD00043B
:0103BE00043A
:0103BF000439
:0103C0000438
:0103C1000437
:0103C2000436
:0103C3000435
:0103C4000434
:0103C5000433
:0103C6000432
:0103C7000431
:0103C8000430
:0103C900042F
:0103CA00042E
:0103CB00042D
:0103CC00042C
:0103CD00042B
:0103CE00042A
:0103CF000429
:0103D0000428
:0103D1000427
:0103D2000426
:0103D3000425
:0103D4000424
:0103D5000423
:0103D6000422
:0103D7000421
:0103D8000420
:0103D900041F
:0103DA00041E
:0103DB00041D
:0103DC00041C
:0103DD00041B
:0103DE00041A
:0103DF000419
:0103E0000418
:0103E1000417
:0103E2000416
:0103E3000415
:0103E4000414
:0103E5000413
:0103E6000412
:0103E7000411
:0103E8000410
:0103E900040F
:0103EA00040E
:0103EB00040D
:0103EC00040C
:0103ED00040B
:0103EE00040A
:0103EF000409
:0103F0000408
:0103F1000407
:0103F2000406
:0103F3000405
:0103F4000404
:0103F5000403
:0103F6000402
:0103F7000401
:0103F8000400
:0103F90004FF
:0103FA0004FE
:0103FB0004FD
:0103FC0004FC
:0103FD0004FB
:0103FE0004FA
:0103FF0004F9
:0104000004F7
:0104010004F6
:0104020004F5
:0104030004F4
:0104040004F3
:0104050004F2
:0104060004F1
:0104070004F0
:0104080004EF
:0104090004EE
:01040A0004ED
:01040B0004EC
:01040C0004EB
:01040D0004EA
:01040E0004E9
:01040F0004E8
:0104100004E7
:0104110004E6
:0104120004E5
:0104130004E4
:0104140004E3
:0104150004E2
:0104160004E1
:0104170004E0
:0104180004DF
:0104190004DE
:01041A0004DD
:01041B0004DC
:01041C0004DB
:01041D0004DA
:01041E0004D9
:01041F0004D8
:0104200004D7
:0104210004D6
:0104220004D5
:0104230004D4
:0104240004D3
:0104250004D2
:0104260004D1
:0104270004D0
:0104280004CF
:0104290004CE
:01042A0004CD
:01042B0004CC
:01042C0004CB
:01042D0004CA
:01042E0004C9
:01042F0004C8
:0104300004C7
:0104310004C6
:0104320004C5
:0104330004C4
:0104340004C3
:0104350004C2
:0104360004C1
:0104370004C0
:0104380004BF
:0104390004BE
:01043A0004BD
:01043B0004BC
:01043C0004BB
:01043D0004BA
:01043E0004B9
:01043F0004B8
:0104400004B7
:0104410004B6
:0104420004B5
:0104430004B4
:0104440004B3
:0104450004B2
:0104460004B1
:0104470004B0
:0104480004AF
:0104490004AE
:01044A0004AD
:01044B0004AC
:01044C0004AB
:01044D0004AA
:01044E0004A9
:01044F0004A8
:0104500004A7
:0104510004A6
:0104520004A5
:0104530004A4
:0104540004A3
:0104550004A2
:0104560004A1
:0104570004A0
:01045800049F
:01045900049E
:01045A00049D
:01045B00049C
:01045C00049B
:01045D00049A
:01045E000499
:01045F000498
:010460000497
:010461000496
:010462000495
:010463000494
:010464000493
:010465000492
:010466000491
:010467000490
:01046800048F
:01046900048E
:01046A00048D
:01046B00048C
:01046C00048B
:01046D00048A
:01046E000489
:01046F000488
:010470000487
:010471000486
:010472000485
:010473000484
:010474000483
:010475000482
:010476000481
:010477000480
:01047800047F
:01047900047E
:01047A00047D
:01047B00047C
:01047C00047B
:01047D00047A
:01047E000479
:01047F000478
:010480000477
:010481000476
:010482000475
:010483000474
:010484000473
:010485000472
:010486000471
:010487000470
:01048800046F
:01048900046E
:01048A00046D
:01048B00046C
:01048C00046B
:01048D00046A
:01048E000469
:01048F000468
:010490000467
:010491000466
:010492000465
:010493000464
:010494000463
:010495000462
:010496000461
:010497000460
:01049800045F
:01049900045E
:01049A00045D
:01049B00045C
:01049C00045B
:01049D00045A
:01049E000459
:01049F000458
:0104A0000457
:0104A1000456
:0104A2000455
:0104A3000454
:0104A4000453
:0104A5000452
:0104A6000451
:0104A7000450
:0104A800044F
:0104A900044E
:0104AA00044D
:0104AB00044C
:0104AC00044B
:0104AD00044A
:0104AE000449
:0104AF000448
:0104B0000447
:0104B1000446
:0104B2000445
:0104B3000444
:0104B4000443
:0104B5000442
:0104B6000441
:0104B7000440
:0104B800043F
:0104B900043E
:0104BA00043D
:0104BB00043C
:0104BC00043B
:0104BD00043A
:0104BE000439
:0104BF000438
:0104C0000437
:0104C1000436
:0104C2000435
:0104C3000434
:0104C4000433
:0104C5000432
:0104C6000431
:0104C7000430
:0104C800042F
:0104C900042E
:0104CA00042D
:0104CB00042C
:0104CC00042B
:0104CD00042A
:0104CE000429
:0104CF000428
:0104D0000427
:0104D1000426
:0104D2000425
:0104D3000424
:0104D4000423
:0104D5000422
:0104D6000421
:0104D7000420
:0104D800041F
:0104D900041E
:0104DA00041D
:0104DB00041C
:0104DC00041B
:0104DD00041A
:0104DE000419
:0104DF000418
:0104E0000417
:0104E1000416
:0104E2000415
:0104E3000414
:0104E4000413
:0104E5000412
:0104E6000411
:0104E7000410
:0104E800040F
:0104E900040E
:0104EA00040D
:0104EB00040C
:0104EC00040B
:0104ED00040A
:0104EE000409
:0104EF000408
:0104F0000407
:0104F1000406
:0104F2000405
:0104F3000404
:0104F4000403
:0104F5000402
:0104F6000401
:0104F7000400
:0104F80004FF
:0104F90004FE
:0104FA0004FD
:0104FB0004FC
:0104FC0004FB
:0104FD0004FA
:0104FE0004F9
:0104FF0004F8
:0105000004F6
:0105010004F5
:0105020004F4
:0105030004F3
:0105040004F2
:0105050004F1
:0105060004F0
:0105070004EF
:0105080004EE
:0105090004ED
:01050A0004EC
:01050B0004EB
:01050C0004EA
:01050D0004E9
:01050E0004E8
:01050F0004E7
:0105100004E6
:0105110004E5
:0105120004E4
:0105130004E3
:0105140004E2
:0105150004E1
:0105160004E0
:0105170004DF
:0105180004DE
:0105190004DD
:01051A0004DC
:01051B0004DB
:01051C0004DA
:01051D0004D9
:01051E0004D8
:01051F0004D7
:0105200004D6
:0105210004D5
:0105220004D4
:0105230004D3
:0105240004D2
:0105250004D1
:0105260004D0
:0105270004CF
:0105280004CE
:0105290004CD
:01052A0004CC
:01052B0004CB
:01052C0004CA
:01052D0004C9
:01052E0004C8
:01052F0004C7
:0105300004C6
:0105310004C5
:0105320004C4
:0105330004C3
:0105340004C2
:0105350004C1
:0105360004C0
:0105370004BF
:0105380004BE
:0105390004BD
:01053A0004BC
:01053B0004BB
:01053C0004BA
:01053D0004B9
:01053E0004B8
:01053F0004B7
:0105400004B6
:0105410004B5
:0105420004B4
:0105430004B3
:0105440004B2
:0105450004B1
:0105460004B0
:0105470004AF
:0105480004AE
:0105490004AD
:01054A0004AC
:01054B0004AB
:01054C0004AA
:01054D0004A9
:01054E0004A8
:01054F0004A7
:0105500004A6
:0105510004A5
:0105520004A4
:0105530004A3
:0105540004A2
:0105550004A1
:0105560004A0
:01055700049F
:01055800049E
:01055900049D
:01055A00049C
:01055B00049B
:01055C00049A
:01055D000499
:01055E000498
:01055F000497
:010560000496
:010561000495
:010562000494
:010563000493
:010564000492
:010565000491
:010566000490
:01056700048F
:01056800048E
:01056900048D
:01056A00048C
:01056B00048B
:01056C00048A
:01056D000489
:01056E000488
:01056F000487
:010570000486
:010571000485
:010572000484
:010573000483
:010574000482
:010575000481
:010576000480
:01057700047F
:01057800047E
:01057900047D
:01057A00047C
:01057B00047B
:01057C00047A
:01057D000479
:01057E000478
:01057F000477
:010580000476
:010581000475
:010582000474
:010583000473
:010584000472
:010585000471
:010586000470
:01058700046F
:01058800046E
:01058900046D
:01058A00046C
:01058B00046B
:01058C00046A
:01058D000469
:01058E000468
:01058F000467
:010590000466
:010591000465
:010592000464
:010593000463
:010594000462
:010595000461
:010596000460
:01059700045F
:01059800045E
:01059900045D
:01059A00045C
:01059B00045B
:01059C00045A
:01059D000459
:01059E000458
:01059F000457
:0105A0000456
:0105A1000455
:0105A2000454
:0105A3000453
:0105A4000452
:0105A5000451
:0105A6000450
:0105A700044F
:0105A800044E
:0105A900044D
:0105AA00044C
:0105AB00044B
:0105AC00044A
:0105AD000449
:0105AE000448
:0105AF000447
:0105B0000446
:0105B1000445
:0105B2000444
:0105B3000443
:0105B4000442
:0105B5000441
:0105B6000440
:0105B700043F
:0105B800043E
:0105B900043D
:0105BA00043C
:0105BB00043B
:0105BC00043A
:0105BD000439
:0105BE000438
:0105BF000437
:0105C0000436
:0105C1000435
:0105C2000434
:0105C3000433
:0105C4000432
:0105C5000431
:0105C6000430
:0105C700042F
:0105C800042E
:0105C900042D
:0105CA00042C
:0105CB00042B
:0105CC00042A
:0105CD000429
:0105CE000428
:0105CF000427
:0105D0000426
:0105D1000425
:0105D2000424
:0105D3000423
:0105D4000422
:0105D5000421
:0105D6000420
:0105D700041F
:0105D800041E
:0105D900041D
:0105DA00041C
:0105DB00041B
:0105DC00041A
:0105DD000419
:0105DE000418
:0105DF000417
:0105E0000416
:0105E1000415
:0105E2000414
:0105E3000413
:0105E4000412
:0105E5000411
:0105E6000410
:0105E700040F
:0105E800040E
:0105E900040D
:0105EA00040C
:0105EB00040B
:0105EC00040A
:0105ED000409
:0105EE000408
:0105EF000407
:0105F0000406
:0105F1000405
:0105F2000404
:0105F3000403
:0105F4000402
:0105F5000401
:0105F6000400
:0105F70004FF
:0105F80004FE
:0105F90004FD
:0105FA0004FC
:0105FB0004FB
:0105FC0004FA
:0105FD0004F9
:0105FE0004F8
:0105FF0004F7
:0106000004F5
:0106010004F4
:0106020004F3
:0106030004F2
:0106040004F1
:0106050004F0
:0106060004EF
:0106070004EE
:0106080004ED
:0106090004EC
:01060A0004EB
:01060B0004EA
:01060C0004E9
:01060D0004E8
:01060E0004E7
:01060F0004E6
:0106100004E5
:0106110004E4
:0106120004E3
:0106130004E2
:0106140004E1
:0106150004E0
:0106160004DF
:0106170004DE
:0106180004DD
:0106190004DC
:01061A0004DB
:01061B0004DA
:01061C0004D9
:01061D0004D8
:01061E0004D7
:01061F0004D6
:0106200004D5
:0106210004D4
:0106220004D3
:0106230004D2
:0106240004D1
:0106250004D0
:0106260004CF
:0106270004CE
:0106280004CD
:0106290004CC
:01062A0004CB
:01062B0004CA
:01062C0004C9
:01062D0004C8
:01062E0004C7
:01062F0004C6
:0106300004C5
:0106310004C4
:0106320004C3
:0106330004C2
:0106340004C1
:0106350004C0
:0106360004BF
:0106370004BE
:0106380004BD
:0106390004BC
:01063A0004BB
:01063B0004BA
:01063C0004B9
:01063D0004B8
:01063E0004B7
:01063F0004B6
:0106400004B5
:0106410004B4
:0106420004B3
:0106430004B2
:0106440004B1
:0106450004B0
:0106460004AF
:0106470004AE
:0106480004AD
:0106490004AC
:01064A0004AB
:01064B0004AA
:01064C0004A9
:01064D0004A8
:01064E0004A7
:01064F0004A6
:0106500004A5
:0106510004A4
:0106520004A3
:0106530004A2
:0106540004A1
:0106550004A0
:01065600049F
:01065700049E
:01065800049D
:01065900049C
:01065A00049B
:01065B00049A
:01065C000499
:01065D000498
:01065E000497
:01065F000496
:010660000495
:010661000494
:010662000493
:010663000492
:010664000491
:010665000490
:01066600048F
:01066700048E
:01066800048D
:01066900048C
:01066A00048B
:01066B00048A
:01066C000489
:01066D000488
:01066E000487
:01066F000486
:010670000485
:010671000484
:010672000483
:010673000482
:010674000481
:010675000480
:01067600047F
:01067700047E
:01067800047D
:01067900047C
:01067A00047B
:01067B00047A
:01067C000479
:01067D000478
:01067E000477
:01067F000476
:010680000475
:010681000474
:010682000473
:010683000472
:010684000471
:010685000470
:01068600046F
:01068700046E
:01068800046D
:01068900046C
:01068A00046B
:01068B00046A
:01068C000469
:01068D000468
:01068E000467
:01068F000466
:010690000465
:010691000464
:010692000463
:010693000462
:010694000461
:010695000460
:01069600045F
:01069700045E
:01069800045D
:01069900045C
:01069A00045B
:01069B00045A
:01069C000459
:01069D000458
:01069E000457
:01069F000456
:0106A0000455
:0106A1000454
:0106A2000453
:0106A3000452
:0106A4000451
:0106A5000450
:0106A600044F
:0106A700044E
:0106A800044D
:0106A900044C
:0106AA00044B
:0106AB00044A
:0106AC000449
:0106AD000448
:0106AE000447
:0106AF000446
:0106B0000445
:0106B1000444
:0106B2000443
:0106B3000442
:0106B4000441
:0106B5000440
:0106B600043F
:0106B700043E
:0106B800043D
:0106B900043C
:0106BA00043B
:0106BB00043A
:0106BC000439
:0106BD000438
:0106BE000437
:0106BF000436
:0106C0000435
:0106C1000434
:0106C2000433
:0106C3000432
:0106C4000431
:0106C5000430
:0106C600042F
:0106C700042E
:0106C800042D
:0106C900042C
:0106CA00042B
:0106CB00042A
:0106CC000429
:0106CD000428
:0106CE000427
:0106CF000426
:0106D0000425
:0106D1000424
:0106D2000423
:0106D3000422
:0106D4000421
:0106D5000420
:0106D600041F
:0106D700041E
:0106D800041D
:0106D900041C
:0106DA00041B
:0106DB00041A
:0106DC000419
:0106DD000418
:0106DE000417
:0106DF000416
:0106E0000415
:0106E1000414
:0106E2000413
:0106E3000412
:0106E4000411
:0106E5000410
:0106E600040F
:0106E700040E
:0106E800040D
:0106E900040C
:0106EA00040B
:0106EB00040A
:0106EC000409
:0106ED000408
:0106EE000407
:0106EF000406
:0106F0000405
:0106F1000404
:0106F2000403
:0106F3000402
:0106F4000401
:0106F5000400
:0106F60004FF
:0106F70004FE
:0106F80004FD
:0106F90004FC
:0106FA0004FB
:0106FB0004FA
:0106FC0004F9
:0106FD0004F8
:0106FE0004F7
:0106FF0004F6
:0107000004F4
:0107010004F3
:0107020004F2
:0107030004F1
:0107040004F0
:0107050004EF
:0107060004EE
:0107070004ED
:0107080004EC
:0107090004EB
:01070A0004EA
:01070B0004E9
:01070C0004E8
:01070D0004E7
:01070E0004E6
:01070F0004E5
:0107100004E4
:0107110004E3
:0107120004E2
:0107130004E1
:0107140004E0
:0107150004DF
:0107160004DE
:0107170004DD
:0107180004DC
:0107190004DB
:01071A0004DA
:01071B0004D9
:01071C0004D8
:01071D0004D7
:01071E0004D6
:01071F0004D5
:0107200004D4
:0107210004D3
:0107220004D2
:0107230004D1
:0107240004D0
:0107250004CF
:0107260004CE
:0107270004CD
:0107280004CC
:0107290004CB
:01072A0004CA
:01072B0004C9
:01072C0004C8
:01072D0004C7
:01072E0004C6
:01072F0004C5
:0107300004C4
:0107310004C3
:0107320004C2
:0107330004C1
:0107340004C0
:0107350004BF
:0107360004BE
:0107370004BD
:0107380004BC
:0107390004BB
:01073A0004BA
:01073B0004B9
:01073C0004B8
:01073D0004B7
:01073E0004B6
:01073F0004B5
:0107400004B4
:0107410004B3
:0107420004B2
:0107430004B1
:0107440004B0
:0107450004AF
:0107460004AE
:0107470004AD
:0107480004AC
:0107490004AB
:01074A0004AA
:01074B0004A9
:01074C0004A8
:01074D0004A7
:01074E0004A6
:01074F0004A5
:0107500004A4
:0107510004A3
:0107520004A2
:0107530004A1
:0107540004A0
:01075500049F
:01075600049E
:01075700049D
:01075800049C
:01075900049B
:01075A00049A
:01075B000499
:01075C000498
:01075D000497
:01075E000496
:01075F000495
:010760000494
:010761000493
:010762000492
:010763000491
:010764000490
:01076500048F
:01076600048E
:01076700048D
:01076800048C
:01076900048B
:01076A00048A
:01076B000489
:01076C000488
:01076D000487
:01076E000486
:01076F000485
:010770000484
:010771000483
:010772000482
:010773000481
:010774000480
:01077500047F
:01077600047E
:01077700047D
:01077800047C
:01077900047B
:01077A00047A
:01077B000479
:01077C000478
:01077D000477
:01077E000476
:01077F000475
:010780000474
:010781000473
:010782000472
:010783000471
:010784000470
:01078500046F
:01078600046E
:01078700046D
:01078800046C
:01078900046B
:01078A00046A
:01078B000469
:01078C000468
:01078D000467
:01078E000466
:01078F000465
:010790000464
:010791000463
:010792000462
:010793000461
:010794000460
:01079500045F
:01079600045E
:01079700045D
:01079800045C
:01079900045B
:01079A00045A
:01079B000459
:01079C000458
:01079D000457
:01079E000456
:01079F000455
:0107A0000454
:0107A1000453
:0107A2000452
:0107A3000451
:0107A4000450
:0107A500044F
:0107A600044E
:0107A700044D
:0107A800044C
:0107A900044B
:0107AA00044A
:0107AB000449
:0107AC000448
:0107AD000447
:0107AE000446
:0107AF000445
:0107B0000444
:0107B1000443
:0107B2000442
:0107B3000441
:0107B4000440
:0107B500043F
:0107B600043E
:0107B700043D
:0107B800043C
:0107B900043B
:0107BA00043A
:0107BB000439
:0107BC000438
:0107BD000437
:0107BE000436
:0107BF000435
:0107C0000434
:0107C1000433
:0107C2000432
:0107C3000431
:0107C4000430
:0107C500042F
:0107C600042E
:0107C700042D
:0107C800042C
:0107C900042B
:0107CA00042A
:0107CB000429
:0107CC000428
:0107CD000427
:0107CE000426
:0107CF000425
:0107D0000424
:0107D1000423
:0107D2000422
:0107D3000421
:0107D4000420
:0107D500041F
:0107D600041E
:0107D700041D
:0107D800041C
:0107D900041B
:0107DA00041A
:0107DB000419
:0107DC000418
:0107DD000417
:0107DE000416
:0107DF000415
:0107E0000414
:0107E1000413
:0107E2000412
:0107E3000411
:0107E4000410
:0107E500040F
:0107E600040E
:0107E700040D
:0107E800040C
:0107E900040B
:0107EA00040A
:0107EB000409
:0107EC000408
:0107ED000407
:0107EE000406
:0107EF000405
:0107F0000404
:0107F1000403
:0107F2000402
:0107F3000401
:0107F4000400
:0107F50004FF
:0107F60004FE
:0107F70004FD
:0107F80004FC
:0107F90004FB
:0107FA0004FA
:0107FB0004F9
:0107FC0004F8
:0107FD0004F7
:0107FE0004F6
:0107FF0004F5
:0108000004F3
:0108010004F2
:0108020004F1
:0108030004F0
:0108040004EF
:0108050004EE
:0108060004ED
:0108070004EC
:0108080004EB
:0108090004EA
:01080A0004E9
:01080B0004E8
:01080C0004E7
:01080D0004E6
:01080E0004E5
:01080F0004E4
:0108100004E3
:0108110004E2
:0108120004E1
:0108130004E0
:0108140004DF
:0108150004DE
:0108160004DD
:0108170004DC
:0108180004DB
:0108190004DA
:01081A0004D9
:01081B0004D8
:01081C0004D7
:01081D0004D6
:01081E0004D5
:01081F0004D4
:0108200004D3
:0108210004D2
:0108220004D1
:0108230004D0
:0108240004CF
:0108250004CE
:0108260004CD
:0108270004CC
:0108280004CB
:0108290004CA
:01082A0004C9
:01082B0004C8
:01082C0004C7
:01082D0004C6
:01082E0004C5
:01082F0004C4
:0108300004C3
:0108310004C2
:0108320004C1
:0108330004C0
:0108340004BF
:0108350004BE
:0108360004BD
:0108370004BC
:0108380004BB
:0108390004BA
:01083A0004B9
:01083B0004B8
:01083C0004B7
:01083D0004B6
:01083E0004B5
:01083F0004B4
:0108400004B3
:0108410004B2
:0108420004B1
:0108430004B0
:0108440004AF
:0108450004AE
:0108460004AD
:0108470004AC
:0108480004AB
:0108490004AA
:01084A0004A9
:01084B0004A8
:01084C0004A7
:01084D0004A6
:01084E0004A5
:01084F0004A4
:0108500004A3
:0108510004A2
:0108520004A1
:0108530004A0
:01085400049F
:01085500049E
:01085600049D
:01085700049C
:01085800049B
:01085900049A
:01085A000499
:01085B000498
:01085C000497
:01085D000496
:01085E000495
:01085F000494
:010860000493
:010861000492
:010862000491
:010863000490
:01086400048F
:01086500048E
:01086600048D
:01086700048C
:01086800048B
:01086900048A
:01086A000489
:01086B000488
:01086C000487
:01086D000486
:01086E000485
:01086F000484
:010870000483
:010871000482
:010872000481
:010873000480
:01087400047F
:01087500047E
:01087600047D
:01087700047C
:01087800047B
:01087900047A
:01087A000479
:01087B000478
:01087C000477
:01087D000476
:01087E000475
:01087F000474
:010880000473
:010881000472
:010882000471
:010883000470
:01088400046F
:01088500046E
:01088600046D
:01088700046C
:01088800046B
:01088900046A
:01088A000469
:01088B000468
:01088C000467
:01088D000466
:01088E000465
:01088F000464
:010890000463
:010891000462
:010892000461
:010893000460
:01089400045F
:01089500045E
:01089600045D
:01089700045C
:01089800045B
:01089900045A
:01089A000459
:01089B000458
:01089C000457
:01089D000456
:01089E000455
:01089F000454
:0108A0000453
:0108A1000452
:0108A2000451
:0108A3000450
:0108A400044F
:0108A500044E
:0108A600044D
:0108A700044C
:0108A800044B
:0108A900044A
:0108AA000449
:0108AB000448
:0108AC000447
:0108AD000446
:0108AE000445
:0108AF000444
:0108B0000443
:0108B1000442
:0108B2000441
:0108B3000440
:0108B400043F
:0108B500043E
:0108B600043D
:0108B700043C
:0108B800043B
:0108B900043A
:0108BA000439
:0108BB000438
:0108BC000437
:0108BD000436
:0108BE000435
:0108BF000434
:0108C0000433
:0108C1000432
:0108C2000431
:0108C3000430
:0108C400042F
:0108C500042E
:0108C600042D
:0108C700042C
:0108C800042B
:0108C900042A
:0108CA000429
:0108CB000428
:0108CC000427
:0108CD000426
:0108CE000425
:0108CF000424
:0108D0000423
:0108D1000422
:0108D2000421
:0108D3000420
:0108D400041F
:0108D500041E
:0108D600041D
:0108D700041C
:0108D800041B
:0108D900041A
:0108DA000419
:0108DB000418
:0108DC000417
:0108DD000416
:0108DE000415
:0108DF000414
:0108E0000413
:0108E1000412
:0108E2000411
:0108E3000410
:0108E400040F
:0108E500040E
:0108E600040D
:0108E700040C
:0108E800040B
:0108E900040A
:0108EA000409
:0108EB000408
:0108EC000407
:0108ED000406
:0108EE000405
:0108EF000404
:0108F0000403
:0108F1000402
:0108F2000401
:0108F3000400
:0108F40004FF
:0108F50004FE
:0108F60004FD
:0108F70004FC
:0108F80004FB
:0108F90004FA
:0108FA0004F9
:0108FB0004F8
:0108FC0004F7
:0108FD0004F6
:0108FE0004F5
:0108FF0004F4
:0109000004F2
:0109010004F1
:0109020004F0
:0109030004EF
:0109040004EE
:0109050004ED
:0109060004EC
:0109070004EB
:0109080004EA
:0109090004E9
:01090A0004E8
:01090B0004E7
:01090C0004E6
:01090D0004E5
:01090E0004E4
:01090F0004E3
:0109100004E2
:0109110004E1
:0109120004E0
:0109130004DF
:0109140004DE
:0109150004DD
:0109160004DC
:0109170004DB
:0109180004DA
:0109190004D9
:01091A0004D8
:01091B0004D7
:01091C0004D6
:01091D0004D5
:01091E0004D4
:01091F0004D3
:0109200004D2
:0109210004D1
:0109220004D0
:0109230004CF
:0109240004CE
:0109250004CD
:0109260004CC
:0109270004CB
:0109280004CA
:0109290004C9
:01092A0004C8
:01092B0004C7
:01092C0004C6
:01092D0004C5
:01092E0004C4
:01092F0004C3
:0109300004C2
:0109310004C1
:0109320004C0
:0109330004BF
:0109340004BE
:0109350004BD
:0109360004BC
:0109370004BB
:0109380004BA
:0109390004B9
:01093A0004B8
:01093B0004B7
:01093C0004B6
:01093D0004B5
:01093E0004B4
:01093F0004B3
:0109400004B2
:0109410004B1
:0109420004B0
:0109430004AF
:0109440004AE
:0109450004AD
:0109460004AC
:0109470004AB
:0109480004AA
:0109490004A9
:01094A0004A8
:01094B0004A7
:01094C0004A6
:01094D0004A5
:01094E0004A4
:01094F0004A3
:0109500004A2
:0109510004A1
:0109520004A0
:01095300049F
:01095400049E
:01095500049D
:01095600049C
:01095700049B
:01095800049A
:010959000499
:01095A000498
:01095B000497
:01095C000496
:01095D000495
:01095E000494
:01095F000493
:010960000492
:010961000491
:010962000490
:01096300048F
:01096400048E
:01096500048D
:01096600048C
:01096700048B
:01096800048A
:010969000489
:01096A000488
:01096B000487
:01096C000486
:01096D000485
:01096E000484
:01096F000483
:010970000482
:010971000481
:010972000480
:01097300047F
:01097400047E
:01097500047D
:01097600047C
:01097700047B
:01097800047A
:010979000479
:01097A000478
:01097B000477
:01097C000476
:01097D000475
:01097E000474
:01097F000473
:010980000472
:010981000471
:010982000470
:01098300046F
:01098400046E
:01098500046D
:01098600046C
:01098700046B
:01098800046A
:010989000469
:01098A000468
:01098B000467
:01098C000466
:01098D000465
:01098E000464
:01098F000463
:010990000462
:010991000461
:010992000460
:01099300045F
:01099400045E
:01099500045D
:01099600045C
:01099700045B
:01099800045A
:010999000459
:01099A000458
:01099B000457
:01099C000456
:01099D000455
:01099E000454
:01099F000453
:0109A0000452
:0109A1000451
:0109A2000450
:0109A300044F
:0109A400044E
:0109A500044D
:0109A600044C
:0109A700044B
:0109A800044A
:0109A9000449
:0109AA000448
:0109AB000447
:0109AC000446
:0109AD000445
:0109AE000444
:0109AF000443
:0109B0000442
:0109B1000441
:0109B2000440
:0109B300043F
:0109B400043E
:0109B500043D
:0109B600043C
:0109B700043B
:0109B800043A
:0109B9000439
:0109BA000438
:0109BB000437
:0109BC000436
:0109BD000435
:0109BE000434
:0109BF000433
:0109C0000432
:0109C1000431
:0109C2000430
:0109C300042F
:0109C400042E
:0109C500042D
:0109C600042C
:0109C700042B
:0109C800042A
:0109C9000429
:0109CA000428
:0109CB000427
:0109CC000426
:0109CD000425
:0109CE000424
:0109CF000423
:0109D0000422
:0109D1000421
:0109D2000420
:0109D300041F
:0109D400041E
:0109D500041D
:0109D600041C
:0109D700041B
:0109D800041A
:0109D9000419
:0109DA000418
:0109DB000417
:0109DC000416
:0109DD000415
:0109DE000414
:0109DF000413
:0109E0000412
:0109E1000411
:0109E2000410
:0109E300040F
:0109E400040E
:0109E500040D
:0109E600040C
:0109E700040B
:0109E800040A
:0109E9000409
:0109EA000408
:0109EB000407
:0109EC000406
:0109ED000405
:0109EE000404
:0109EF000403
:0109F0000402
:0109F1000401
:0109F2000400
:0109F30004FF
:0109F40004FE
:0109F50004FD
:0109F60004FC
:0109F70004FB
:0109F80004FA
:0109F90004F9
:0109FA0004F8
:0109FB0004F7
:0109FC0004F6
:0109FD0004F5
:0109FE0004F4
:0109FF0004F3
:010A000004F1
:010A010004F0
:010A020004EF
:010A030004EE
:010A040004ED
:010A050004EC
:010A060004EB
:010A070004EA
:010A080004E9
:010A090004E8
:010A0A0004E7
:010A0B0004E6
:010A0C0004E5
:010A0D0004E4
:010A0E0004E3
:010A0F0004E2
:010A100004E1
:010A110004E0
:010A120004DF
:010A130004DE
:010A140004DD
:010A150004DC
:010A160004DB
:010A170004DA
:010A180004D9
:010A190004D8
:010A1A0004D7
:010A1B0004D6
:010A1C0004D5
:010A1D0004D4
:010A1E0004D3
:010A1F0004D2
:010A200004D1
:010A210004D0
:010A220004CF
:010A230004CE
:010A240004CD
:010A250004CC
:010A260004CB
:010A270004CA
:010A280004C9
:010A290004C8
:010A2A0004C7
:010A2B0004C6
:010A2C0004C5
:010A2D0004C4
:010A2E0004C3
:010A2F0004C2
:010A300004C1
:010A310004C0
:010A320004BF
:010A330004BE
:010A340004BD
:010A350004BC
:010A360004BB
:010A370004BA
:010A380004B9
:010A390004B8
:010A3A0004B7
:010A3B0004B6
:010A3C0004B5
:010A3D0004B4
:010A3E0004B3
:010A3F0004B2
:010A400004B1
:010A410004B0
:010A420004AF
:010A430004AE
:010A440004AD
:010A450004AC
:010A460004AB
:010A470004AA
:010A480004A9
:010A490004A8
:010A4A0004A7
:010A4B0004A6
:010A4C0004A5
:010A4D0004A4
:010A4E0004A3
:010A4F0004A2
:010A500004A1
:010A510004A0
:010A5200049F
:010A5300049E
:010A5400049D
:010A5500049C
:010A5600049B
:010A5700049A
:010A58000499
:010A59000498
:010A5A000497
:010A5B000496
:010A5C000495
:010A5D000494
:010A5E000493
:010A5F000492
:010A60000491
:010A61000490
:010A6200048F
:010A6300048E
:010A6400048D
:010A6500048C
:010A6600048B
:010A6700048A
:010A68000489
:010A69000488
:010A6A000487
:010A6B000486
:010A6C000485
:010A6D000484
:010A6E000483
:010A6F000482
:010A70000481
:010A71000480
:010A7200047F
:010A7300047E
:010A7400047D
:010A7500047C
:010A7600047B
:010A7700047A
:010A78000479
:010A79000478
:010A7A000477
:010A7B000476
:010A7C000475
:010A7D000474
:010A7E000473
:010A7F000472
:010A80000471
:010A81000470
:010A8200046F
:010A8300046E
:010A8400046D
:010A8500046C
:010A8600046B
:010A8700046A
:010A88000469
:010A89000468
:010A8A000467
:010A8B000466
:010A8C000465
:010A8D000464
:010A8E000463
:010A8F000462
:010A90000461
:010A91000460
:010A9200045F
:010A9300045E
:010A9400045D
:010A9500045C
:010A9600045B
:010A9700045A
:010A98000459
:010A99000458
:010A9A000457
:010A9B000456
:010A9C000455
:010A9D000454
:010A9E000453
:010A9F000452
:010AA0000451
:010AA1000450
:010AA200044F
:010AA300044E
:010AA400044D
:010AA500044C
:010AA600044B
:010AA700044A
:010AA8000449
:010AA9000448
:010AAA000447
:010AAB000446
:010AAC000445
:010AAD000444
:010AAE000443
:010AAF000442
:010AB0000441
:010AB1000440
:010AB200043F
:010AB300043E
:010AB400043D
:010AB500043C
:010AB600043B
:010AB700043A
:010AB8000439
:010AB9000438
:010ABA000437
:010ABB000436
:010ABC000435
:010ABD000434
:010ABE000433
:010ABF000432
:010AC0000431
:010AC1000430
:010AC200042F
:010AC300042E
:010AC400042D
:010AC500042C
:010AC600042B
:010AC700042A
:010AC8000429
:010AC9000428
:010ACA000427
:010ACB000426
:010ACC000425
:010ACD000424
:010ACE000423
:010ACF000422
:010AD0000421
:010AD1000420
:010AD200041F
:010AD300041E
:010AD400041D
:010AD500041C
:010AD600041B
:010AD700041A
:010AD8000419
:010AD9000418
:010ADA000417
:010ADB000416
:010ADC000415
:010ADD000414
:010ADE000413
:010ADF000412
:010AE0000411
:010AE1000410
:010AE200040F
:010AE300040E
:010AE400040D
:010AE500040C
:010AE600040B
:010AE700040A
:010AE8000409
:010AE9000408
:010AEA000407
:010AEB000406
:010AEC000405
:010AED000404
:010AEE000403
:010AEF000402
:010AF0000401
:010AF1000400
:010AF20004FF
:010AF30004FE
:010AF40004FD
:010AF50004FC
:010AF60004FB
:010AF70004FA
:010AF80004F9
:010AF90004F8
:010AFA0004F7
:010AFB0004F6
:010AFC0004F5
:010AFD0004F4
:010AFE0004F3
:010AFF0004F2
:010B000004F0
:010B010004EF
:010B020004EE
:010B030004ED
:010B040004EC
:010B050004EB
:010B060004EA
:010B070004E9
:010B080004E8
:010B090004E7
:010B0A0004E6
:010B0B0004E5
:010B0C0004E4
:010B0D0004E3
:010B0E0004E2
:010B0F0004E1
:010B100004E0
:010B110004DF
:010B120004DE
:010B130004DD
:010B140004DC
:010B150004DB
:010B160004DA
:010B170004D9
:010B180004D8
:010B190004D7
:010B1A0004D6
:010B1B0004D5
:010B1C0004D4
:010B1D0004D3
:010B1E0004D2
:010B1F0004D1
:010B200004D0
:010B210004CF
:010B220004CE
:010B230004CD
:010B240004CC
:010B250004CB
:010B260004CA
:010B270004C9
:010B280004C8
:010B290004C7
:010B2A0004C6
:010B2B0004C5
:010B2C0004C4
:010B2D0004C3
:010B2E0004C2
:010B2F0004C1
:010B300004C0
:010B310004BF
:010B320004BE
:010B330004BD
:010B340004BC
:010B350004BB
:010B360004BA
:010B370004B9
:010B380004B8
:010B390004B7
:010B3A0004B6
:010B3B0004B5
:010B3C0004B4
:010B3D0004B3
:010B3E0004B2
:010B3F0004B1
:010B400004B0
:010B410004AF
:010B420004AE
:010B430004AD
:010B440004AC
:010B450004AB
:010B460004AA
:010B470004A9
:010B480004A8
:010B490004A7
:010B4A0004A6
:010B4B0004A5
:010B4C0004A4
:010B4D0004A3
:010B4E0004A2
:010B4F0004A1
:010B500004A0
:010B5100049F
:010B5200049E
:010B5300049D
:010B5400049C
:010B5500049B
:010B5600049A
:010B57000499
:010B58000498
:010B59000497
:010B5A000496
:010B5B000495
:010B5C000494
:010B5D000493
:010B5E000492
:010B5F000491
:010B60000490
:010B6100048F
:010B6200048E
:010B6300048D
:010B6400048C
:010B6500048B
:010B6600048A
:010B67000489
:010B68000488
:010B69000487
:010B6A000486
:010B6B000485
:010B6C000484
:010B6D000483
:010B6E000482
:010B6F000481
:010B70000480
:010B7100047F
:010B7200047E
:010B7300047D
:010B7400047C
:010B7500047B
:010B7600047A
:010B77000479
:010B78000478
:010B79000477
:010B7A000476
:010B7B000475
:010B7C000474
:010B7D000473
:010B7E000472
:010B7F000471
:010B80000470
:010B8100046F
:010B8200046E
:010B8300046D
:010B8400046C
:010B8500046B
:010B8600046A
:010B87000469
:010B88000468
:010B89000467
:010B8A000466
:010B8B000465
:010B8C000464
:010B8D000463
:010B8E000462
:010B8F000461
:010B90000460
:010B9100045F
:010B9200045E
:010B9300045D
:010B9400045C
:010B9500045B
:010B9600045A
:010B97000459
:010B98000458
:010B99000457
:010B9A000456
:010B9B000455
:010B9C000454
:010B9D000453
:010B9E000452
:010B9F000451
:010BA0000450
:010BA100044F
:010BA200044E
:010BA300044D
:010BA400044C
:010BA500044B
:010BA600044A
:010BA7000449
:010BA8000448
:010BA9000447
:010BAA000446
:010BAB000445
:010BAC000444
:010BAD000443
:010BAE000442
:010BAF000441
:010BB0000440
:010BB100043F
:010BB200043E
:010BB300043D
:010BB400043C
:010BB500043B
:010BB600043A
:010BB7000439
:010BB8000438
:010BB9000437
:010BBA000436
:010BBB000435
:010BBC000434
:010BBD000433
:010BBE000432
:010BBF000431
:010BC0000430
:010BC100042F
:010BC200042E
:010BC300042D
:010BC400042C
:010BC500042B
:010BC600042A
:010BC7000429
:010BC8000428
:010BC9000427
:010BCA000426
:010BCB000425
:010BCC000424
:010BCD000423
:010BCE000422
:010BCF000421
:010BD0000420
:010BD100041F
:010BD200041E
:010BD300041D
:010BD400041C
:010BD500041B
:010BD600041A
:010BD7000419
:010BD8000418
:010BD9000417
:010BDA000416
:010BDB000415
:010BDC000414
:010BDD000413
:010BDE000412
:010BDF000411
:010BE0000410
:010BE100040F
:010BE200040E
:010BE300040D
:010BE400040C
:010BE500040B
:010BE600040A
:010BE7000409
:010BE8000408
:010BE9000407
:010BEA000406
:010BEB000405
:010BEC000404
:010BED000403
:010BEE000402
:010BEF000401
:010BF0000400
:010BF10004FF
:010BF20004FE
:010BF30004FD
:010BF40004FC
:010BF50004FB
:010BF60004FA
:010BF70004F9
:010BF80004F8
:010BF90004F7
:010BFA0004F6
:010BFB0004F5
:010BFC0004F4
:010BFD0004F3
:010BFE0004F2
:010BFF0004F1
:010C000004EF
:010C010004EE
:010C020004ED
:010C030004EC
:010C040004EB
:010C050004EA
:010C060004E9
:010C070004E8
:010C080004E7
:010C090004E6
:010C0A0004E5
:010C0B0004E4
:010C0C0004E3
:010C0D0004E2
:010C0E0004E1
:010C0F0004E0
:010C100004DF
:010C110004DE
:010C120004DD
:010C130004DC
:010C140004DB
:010C150004DA
:010C160004D9
:010C170004D8
:010C180004D7
:010C190004D6
:010C1A0004D5
:010C1B0004D4
:010C1C0004D3
:010C1D0004D2
:010C1E0004D1
:010C1F0004D0
:010C200004CF
:010C210004CE
:010C220004CD
:010C230004CC
:010C240004CB
:010C250004CA
:010C260004C9
:010C270004C8
:010C280004C7
:010C290004C6
:010C2A0004C5
:010C2B0004C4
:010C2C0004C3
:010C2D0004C2
:010C2E0004C1
:010C2F0004C0
:010C300004BF
:010C310004BE
:010C320004BD
:010C330004BC
:010C340004BB
:010C350004BA
:010C360004B9
:010C370004B8
:010C380004B7
:010C390004B6
:010C3A0004B5
:010C3B0004B4
:010C3C0004B3
:010C3D0004B2
:010C3E0004B1
:010C3F0004B0
:010C400004AF
:010C410004AE
:010C420004AD
:010C430004AC
:010C440004AB
:010C450004AA
:010C460004A9
:010C470004A8
:010C480004A7
:010C490004A6
:010C4A0004A5
:010C4B0004A4
:010C4C0004A3
:010C4D0004A2
:010C4E0004A1
:010C4F0004A0
:010C5000049F
:010C5100049E
:010C5200049D
:010C5300049C
:010C5400049B
:010C5500049A
:010C56000499
:010C57000498
:010C58000497
:010C59000496
:010C5A000495
:010C5B000494
:010C5C000493
:010C5D000492
:010C5E000491
:010C5F000490
:010C6000048F
:010C6100048E
:010C6200048D
:010C6300048C
:010C6400048B
:010C6500048A
:010C66000489
:010C67000488
:010C68000487
:010C69000486
:010C6A000485
:010C6B000484
:010C6C000483
:010C6D000482
:010C6E000481
:010C6F000480
:010C7000047F
:010C7100047E
:010C7200047D
:010C7300047C
:010C7400047B
:010C7500047A
:010C76000479
:010C77000478
:010C78000477
:010C79000476
:010C7A000475
:010C7B000474
:010C7C000473
:010C7D000472
:010C7E000471
:010C7F000470
:010C8000046F
:010C8100046E
:010C8200046D
:010C8300046C
:010C8400046B
:010C8500046A
:010C86000469
:010C87000468
:010C88000467
:010C89000466
:010C8A000465
:010C8B000464
:010C8C000463
:010C8D000462
:010C8E000461
:010C8F000460
:010C9000045F
:010C9100045E
:010C9200045D
:010C9300045C
:010C9400045B
:010C9500045A
:010C96000459
:010C97000458
:010C98000457
:010C99000456
:010C9A000455
:010C9B000454
:010C9C000453
:010C9D000452
:010C9E000451
:010C9F000450
:010CA000044F
:010CA100044E
:010CA200044D
:010CA300044C
:010CA400044B
:010CA500044A
:010CA6000449
:010CA7000448
:010CA8000447
:010CA9000446
:010CAA000445
:010CAB000444
:010CAC000443
:010CAD000442
:010CAE000441
:010CAF000440
:010CB000043F
:010CB100043E
:010CB200043D
:010CB300043C
:010CB400043B
:010CB500043A
:010CB6000439
:010CB7000438
:010CB8000437
:010CB9000436
:010CBA000435
:010CBB000434
:010CBC000433
:010CBD000432
:010CBE000431
:010CBF000430
:010CC000042F
:010CC100042E
:010CC200042D
:010CC300042C
:010CC400042B
:010CC500042A
:010CC6000429
:010CC7000428
:010CC8000427
:010CC9000426
:010CCA000425
:010CCB000424
:010CCC000423
:010CCD000422
:010CCE000421
:010CCF000420
:010CD000041F
:010CD100041E
:010CD200041D
:010CD300041C
:010CD400041B
:010CD500041A
:010CD6000419
:010CD7000418
:010CD8000417
:010CD9000416
:010CDA000415
:010CDB000414
:010CDC000413
:010CDD000412
:010CDE000411
:010CDF000410
:010CE000040F
:010CE100040E
:010CE200040D
:010CE300040C
:010CE400040B
:010CE500040A
:010CE6000409
:010CE7000408
:010CE8000407
:010CE9000406
:010CEA000405
:010CEB000404
:010CEC000403
:010CED000402
:010CEE000401
:010CEF000400
:010CF00004FF
:010CF10004FE
:010CF20004FD
:010CF30004FC
:010CF40004FB
:010CF50004FA
:010CF60004F9
:010CF70004F8
:010CF80004F7
:010CF90004F6
:010CFA0004F5
:010CFB0004F4
:010CFC0004F3
:010CFD0004F2
:010CFE0004F1
:010CFF0004F0
:010D000004EE
:010D010004ED
:010D020004EC
:010D030004EB
:010D040004EA
:010D050004E9
:010D060004E8
:010D070004E7
:010D080004E6
:010D090004E5
:010D0A0004E4
:010D0B0004E3
:010D0C0004E2
:010D0D0004E1
:010D0E0004E0
:010D0F0004DF
:010D100004DE
:010D110004DD
:010D120004DC
:010D130004DB
:010D140004DA
:010D150004D9
:010D160004D8
:010D170004D7
:010D180004D6
:010D190004D5
:010D1A0004D4
:010D1B0004D3
:010D1C0004D2
:010D1D0004D1
:010D1E0004D0
:010D1F0004CF
:010D200004CE
:010D210004CD
:010D220004CC
:010D230004CB
:010D240004CA
:010D250004C9
:010D260004C8
:010D270004C7
:010D280004C6
:010D290004C5
:010D2A0004C4
:010D2B0004C3
:010D2C0004C2
:010D2D0004C1
:010D2E0004C0
:010D2F0004BF
:010D300004BE
:010D310004BD
:010D320004BC
:010D330004BB
:010D340004BA
:010D350004B9
:010D360004B8
:010D370004B7
:010D380004B6
:010D390004B5
:010D3A0004B4
:010D3B0004B3
:010D3C0004B2
:010D3D0004B1
:010D3E0004B0
:010D3F0004AF
:010D400004AE
:010D410004AD
:010D420004AC
:010D430004AB
:010D440004AA
:010D450004A9
:010D460004A8
:010D470004A7
:010D480004A6
:010D490004A5
:010D4A0004A4
:010D4B0004A3
:010D4C0004A2
:010D4D0004A1
:010D4E0004A0
:010D4F00049F
:010D5000049E
:010D5100049D
:010D5200049C
:010D5300049B
:010D5400049A
:010D55000499
:010D56000498
:010D57000497
:010D58000496
:010D59000495
:010D5A000494
:010D5B000493
:010D5C000492
:010D5D000491
:010D5E000490
:010D5F00048F
:010D6000048E
:010D6100048D
:010D6200048C
:010D6300048B
:010D6400048A
:010D65000489
:010D66000488
:010D67000487
:010D68000486
:010D69000485
:010D6A000484
:010D6B000483
:010D6C000482
:010D6D000481
:010D6E000480
:010D6F00047F
:010D7000047E
:010D7100047D
:010D7200047C
:010D7300047B
:010D7400047A
:010D75000479
:010D76000478
:010D77000477
:010D78000476
:010D79000475
:010D7A000474
:010D7B000473
:010D7C000472
:010D7D000471
:010D7E000470
:010D7F00046F
:010D8000046E
:010D8100046D
:010D8200046C
:010D8300046B
:010D8400046A
:010D85000469
:010D86000468
:010D87000467
:010D88000466
:010D89000465
:010D8A000464
:010D8B000463
:010D8C000462
:010D8D000461
:010D8E000460
:010D8F00045F
:010D9000045E
:010D9100045D
:010D9200045C
:010D9300045B
:010D9400045A
:010D95000459
:010D96000458
:010D97000457
:010D98000456
:010D99000455
:010D9A000454
:010D9B000453
:010D9C000452
:010D9D000451
:010D9E000450
:010D9F00044F
:010DA000044E
:010DA100044D
:010DA200044C
:010DA300044B
:010DA400044A
:010DA5000449
:010DA6000448
:010DA7000447
:010DA8000446
:010DA9000445
:010DAA000444
:010DAB000443
:010DAC000442
:010DAD000441
:010DAE000440
:010DAF00043F
:010DB000043E
:010DB100043D
:010DB200043C
:010DB300043B
:010DB400043A
:010DB5000439
:010DB6000438
:010DB7000437
:010DB8000436
:010DB9000435
:010DBA000434
:010DBB000433
:010DBC000432
:010DBD000431
:010DBE000430
:010DBF00042F
:010DC000042E
:010DC100042D
:010DC200042C
:010DC300042B
:010DC400042A
:010DC5000429
:010DC6000428
:010DC7000427
:010DC8000426
:010DC9000425
:010DCA000424
:010DCB000423
:010DCC000422
:010DCD000421
:010DCE000420
:010DCF00041F
:010DD000041E
:010DD100041D
:010DD200041C
:010DD300041B
:010DD400041A
:010DD5000419
:010DD6000418
:010DD7000417
:010DD8000416
:010DD9000415
:010DDA000414
:010DDB000413
:010DDC000412
:010DDD000411
:010DDE000410
:010DDF00040F
:010DE000040E
:010DE100040D
:010DE200040C
:010DE300040B
:010DE400040A
:010DE5000409
:010DE6000408
:010DE7000407
:010DE8000406
:010DE9000405
:010DEA000404
:010DEB000403
:010DEC000402
:010DED000401
:010DEE000400
:010DEF0004FF
:010DF00004FE
:010DF10004FD
:010DF20004FC
:010DF30004FB
:010DF40004FA
:010DF50004F9
:010DF60004F8
:010DF70004F7
:010DF80004F6
:010DF90004F5
:010DFA0004F4
:010DFB0004F3
:010DFC0004F2
:010DFD0004F1
:010DFE0004F0
:010DFF0004EF
:010E000004ED
:010E010004EC
:010E020004EB
:010E030004EA
:010E040004E9
:010E050004E8
:010E060004E7
:010E070004E6
:010E080004E5
:010E090004E4
:010E0A0004E3
:010E0B0004E2
:010E0C0004E1
:010E0D0004E0
:010E0E0004DF
:010E0F0004DE
:010E100004DD
:010E110004DC
:010E120004DB
:010E130004DA
:010E140004D9
:010E150004D8
:010E160004D7
:010E170004D6
:010E180004D5
:010E190004D4
:010E1A0004D3
:010E1B0004D2
:010E1C0004D1
:010E1D0004D0
:010E1E0004CF
:010E1F0004CE
:010E200004CD
:010E210004CC
:010E220004CB
:010E230004CA
:010E240004C9
:010E250004C8
:010E260004C7
:010E270004C6
:010E280004C5
:010E290004C4
:010E2A0004C3
:010E2B0004C2
:010E2C0004C1
:010E2D0004C0
:010E2E0004BF
:010E2F0004BE
:010E300004BD
:010E310004BC
:010E320004BB
:010E330004BA
:010E340004B9
:010E350004B8
:010E360004B7
:010E370004B6
:010E380004B5
:010E390004B4
:010E3A0004B3
:010E3B0004B2
:010E3C0004B1
:010E3D0004B0
:010E3E0004AF
:010E3F0004AE
:010E400004AD
:010E410004AC
:010E420004AB
:010E430004AA
:010E440004A9
:010E450004A8
:010E460004A7
:010E470004A6
:010E480004A5
:010E490004A4
:010E4A0004A3
:010E4B0004A2
:010E4C0004A1
:010E4D0004A0
:010E4E00049F
:010E4F00049E
:010E5000049D
:010E5100049C
:010E5200049B
:010E5300049A
:010E54000499
:010E55000498
:010E56000497
:010E57000496
:010E58000495
:010E59000494
:010E5A000493
:010E5B000492
:010E5C000491
:010E5D000490
:010E5E00048F
:010E5F00048E
:010E6000048D
:010E6100048C
:010E6200048B
:010E6300048A
:010E64000489
:010E65000488
:010E66000487
:010E67000486
:010E68000485
:010E69000484
:010E6A000483
:010E6B000482
:010E6C000481
:010E6D000480
:010E6E00047F
:010E6F00047E
:010E7000047D
:010E7100047C
:010E7200047B
:010E7300047A
:010E74000479
:010E75000478
:010E76000477
:010E77000476
:010E78000475
:010E79000474
:010E7A000473
:010E7B000472
:010E7C000471
:010E7D000470
:010E7E00046F
:010E7F00046E
:010E8000046D
:010E8100046C
:010E8200046B
:010E8300046A
:010E84000469
:010E85000468
:010E86000467
:010E87000466
:010E88000465
:010E89000464
:010E8A000463
:010E8B000462
:010E8C000461
:010E8D000460
:010E8E00045F
:010E8F00045E
:010E9000045D
:010E9100045C
:010E9200045B
:010E9300045A
:010E94000459
:010E95000458
:010E96000457
:010E97000456
:010E98000455
:010E99000454
:010E9A000453
:010E9B000452
:010E9C000451
:010E9D000450
:010E9E00044F
:010E9F00044E
:010EA000044D
:010EA100044C
:010EA200044B
:010EA300044A
:010EA4000449
:010EA5000448
:010EA6000447
:010EA7000446
:010EA8000445
:010EA9000444
:010EAA000443
:010EAB000442
:010EAC000441
:010EAD000440
:010EAE00043F
:010EAF00043E
:010EB000043D
:010EB100043C
:010EB200043B
:010EB300043A
:010EB4000439
:010EB5000438
:010EB6000437
:010EB7000436
:010EB8000435
:010EB9000434
:010EBA000433
:010EBB000432
:010EBC000431
:010EBD000430
:010EBE00042F
:010EBF00042E
:010EC000042D
:010EC100042C
:010EC200042B
:010EC300042A
:010EC4000429
:010EC5000428
:010EC6000427
:010EC7000426
:010EC8000425
:010EC9000424
:010ECA000423
:010ECB000422
:010ECC000421
:010ECD000420
:010ECE00041F
:010ECF00041E
:010ED000041D
:010ED100041C
:010ED200041B
:010ED300041A
:010ED4000419
:010ED5000418
:010ED6000417
:010ED7000416
:010ED8000415
:010ED9000414
:010EDA000413
:010EDB000412
:010EDC000411
:010EDD000410
:010EDE00040F
:010EDF00040E
:010EE000040D
:010EE100040C
:010EE200040B
:010EE300040A
:010EE4000409
:010EE5000408
:010EE6000407
:010EE7000406
:010EE8000405
:010EE9000404
:010EEA000403
:010EEB000402
:010EEC000401
:010EED000400
:010EEE0004FF
:010EEF0004FE
:010EF00004FD
:010EF10004FC
:010EF20004FB
:010EF30004FA
:010EF40004F9
:010EF50004F8
:010EF60004F7
:010EF70004F6
:010EF80004F5
:010EF90004F4
:010EFA0004F3
:010EFB0004F2
:010EFC0004F1
:010EFD0004F0
:010EFE0004EF
:010EFF0004EE
:010F000004EC
:010F010004EB
:010F020004EA
:010F030004E9
:010F040004E8
:010F050004E7
:010F060004E6
:010F070004E5
:010F080004E4
:010F090004E3
:010F0A0004E2
:010F0B0004E1
:010F0C0004E0
:010F0D0004DF
:010F0E0004DE
:010F0F0004DD
:010F100004DC
:010F110004DB
:010F120004DA
:010F130004D9
:010F140004D8
:010F150004D7
:010F160004D6
:010F170004D5
:010F180004D4
:010F190004D3
:010F1A0004D2
:010F1B0004D1
:010F1C0004D0
:010F1D0004CF
:010F1E0004CE
:010F1F0004CD
:010F200004CC
:010F210004CB
:010F220004CA
:010F230004C9
:010F240004C8
:010F250004C7
:010F260004C6
:010F270004C5
:010F280004C4
:010F290004C3
:010F2A0004C2
:010F2B0004C1
:010F2C0004C0
:010F2D0004BF
:010F2E0004BE
:010F2F0004BD
:010F300004BC
:010F310004BB
:010F320004BA
:010F330004B9
:010F340004B8
:010F350004B7
:010F360004B6
:010F370004B5
:010F380004B4
:010F390004B3
:010F3A0004B2
:010F3B0004B1
:010F3C0004B0
:010F3D0004AF
:010F3E0004AE
:010F3F0004AD
:010F400004AC
:010F410004AB
:010F420004AA
:010F430004A9
:010F440004A8
:010F450004A7
:010F460004A6
:010F470004A5
:010F480004A4
:010F490004A3
:010F4A0004A2
:010F4B0004A1
:010F4C0004A0
:010F4D00049F
:010F4E00049E
:010F4F00049D
:010F5000049C
:010F5100049B
:010F5200049A
:010F53000499
:010F54000498
:010F55000497
:010F56000496
:010F57000495
:010F58000494
:010F59000493
:010F5A000492
:010F5B000491
:010F5C000490
:010F5D00048F
:010F5E00048E
:010F5F00048D
:010F6000048C
:010F6100048B
:010F6200048A
:010F63000489
:010F64000488
:010F65000487
:010F66000486
:010F67000485
:010F68000484
:010F69000483
:010F6A000482
:010F6B000481
:010F6C000480
:010F6D00047F
:010F6E00047E
:010F6F00047D
:010F7000047C
:010F7100047B
:010F7200047A
:010F73000479
:010F74000478
:010F75000477
:010F76000476
:010F77000475
:010F78000474
:010F79000473
:010F7A000472
:010F7B000471
:010F7C000470
:010F7D00046F
:010F7E00046E
:010F7F00046D
:010F8000046C
:010F8100046B
:010F8200046A
:010F83000469
:010F84000468
:010F85000467
:010F86000466
:010F87000465
:010F88000464
:010F89000463
:010F8A000462
:010F8B000461
:010F8C000460
:010F8D00045F
:010F8E00045E
:010F8F00045D
:010F9000045C
:010F9100045B
:010F9200045A
:010F93000459
:010F94000458
:010F95000457
:010F96000456
:010F97000455
:010F98000454
:010F99000453
:010F9A000452
:010F9B000451
:010F9C000450
:010F9D00044F
:010F9E00044E
:010F9F00044D
:010FA000044C
:010FA100044B
:010FA200044A
:010FA3000449
:010FA4000448
:010FA5000447
:010FA6000446
:010FA7000445
:010FA8000444
:010FA9000443
:010FAA000442
:010FAB000441
:010FAC000440
:010FAD00043F
:010FAE00043E
:010FAF00043D
:010FB000043C
:010FB100043B
:010FB200043A
:010FB3000439
:010FB4000438
:010FB5000437
:010FB6000436
:010FB7000435
:010FB8000434
:010FB9000433
:010FBA000432
:010FBB000431
:010FBC000430
:010FBD00042F
:010FBE00042E
:010FBF00042D
:010FC000042C
:010FC100042B
:010FC200042A
:010FC3000429
:010FC4000428
:010FC5000427
:010FC6000426
:010FC7000425
:010FC8000424
:010FC9000423
:010FCA000422
:010FCB000421
:010FCC000420
:010FCD00041F
:010FCE00041E
:010FCF00041D
:010FD000041C
:010FD100041B
:010FD200041A
:010FD3000419
:010FD4000418
:010FD5000417
:010FD6000416
:010FD7000415
:010FD8000414
:010FD9000413
:010FDA000412
:010FDB000411
:010FDC000410
:010FDD00040F
:010FDE00040E
:010FDF00040D
:010FE000040C
:010FE100040B
:010FE200040A
:010FE3000409
:010FE4000408
:010FE5000407
:010FE6000406
:010FE7000405
:010FE8000404
:010FE9000403
:010FEA000402
:010FEB000401
:010FEC000400
:010FED0004FF
:010FEE0004FE
:010FEF0004FD
:010FF00004FC
:010FF10004FB
:010FF20004FA
:010FF30004F9
:010FF40004F8
:010FF50004F7
:010FF60004F6
:010FF70004F5
:010FF80004F4
:010FF90004F3
:010FFA0004F2
:010FFB0004F1
:010FFC0004F0
:010FFD0004EF
:010FFE0004EE
:010FFF0004ED
:0110000004EB
:0110010004EA
:0110020004E9
:0110030004E8
:0110040004E7
:0110050004E6
:0110060004E5
:0110070004E4
:0110080004E3
:0110090004E2
:01100A0004E1
:01100B0004E0
:01100C0004DF
:01100D0004DE
:01100E0004DD
:01100F0004DC
:0110100004DB
:0110110004DA
:0110120004D9
:0110130004D8
:0110140004D7
:0110150004D6
:0110160004D5
:0110170004D4
:0110180004D3
:0110190004D2
:01101A0004D1
:01101B0004D0
:01101C0004CF
:01101D0004CE
:01101E0004CD
:01101F0004CC
:0110200004CB
:0110210004CA
:0110220004C9
:0110230004C8
:0110240004C7
:0110250004C6
:0110260004C5
:0110270004C4
:0110280004C3
:0110290004C2
:01102A0004C1
:01102B0004C0
:01102C0004BF
:01102D0004BE
:01102E0004BD
:01102F0004BC
:0110300004BB
:0110310004BA
:0110320004B9
:0110330004B8
:0110340004B7
:0110350004B6
:0110360004B5
:0110370004B4
:0110380004B3
:0110390004B2
:01103A0004B1
:01103B0004B0
:01103C0004AF
:01103D0004AE
:01103E0004AD
:01103F0004AC
:0110400004AB
:0110410004AA
:0110420004A9
:0110430004A8
:0110440004A7
:0110450004A6
:0110460004A5
:0110470004A4
:0110480004A3
:0110490004A2
:01104A0004A1
:01104B0004A0
:01104C00049F
:01104D00049E
:01104E00049D
:01104F00049C
:01105000049B
:01105100049A
:011052000499
:011053000498
:011054000497
:011055000496
:011056000495
:011057000494
:011058000493
:011059000492
:01105A000491
:01105B000490
:01105C00048F
:01105D00048E
:01105E00048D
:01105F00048C
:01106000048B
:01106100048A
:011062000489
:011063000488
:011064000487
:011065000486
:011066000485
:011067000484
:011068000483
:011069000482
:01106A000481
:01106B000480
:01106C00047F
:01106D00047E
:01106E00047D
:01106F00047C
:01107000047B
:01107100047A
:011072000479
:011073000478
:011074000477
:011075000476
:011076000475
:011077000474
:011078000473
:011079000472
:01107A000471
:01107B000470
:01107C00046F
:01107D00046E
:01107E00046D
:01107F00046C
:01108000046B
:01108100046A
:011082000469
:011083000468
:011084000467
:011085000466
:011086000465
:011087000464
:011088000463
:011089000462
:01108A000461
:01108B000460
:01108C00045F
:01108D00045E
:01108E00045D
:01108F00045C
:01109000045B
:01109100045A
:011092000459
:011093000458
:011094000457
:011095000456
:011096000455
:011097000454
:011098000453
:011099000452
:01109A000451
:01109B000450
:01109C00044F
:01109D00044E
:01109E00044D
:01109F00044C
:0110A000044B
:0110A100044A
:0110A2000449
:0110A3000448
:0110A4000447
:0110A5000446
:0110A6000445
:0110A7000444
:0110A8000443
:0110A9000442
:0110AA000441
:0110AB000440
:0110AC00043F
:0110AD00043E
:0110AE00043D
:0110AF00043C
:0110B000043B
:0110B100043A
:0110B2000439
:0110B3000438
:0110B4000437
:0110B5000436
:0110B6000435
:0110B7000434
:0110B8000433
:0110B9000432
:0110BA000431
:0110BB000430
:0110BC00042F
:0110BD00042E
:0110BE00042D
:0110BF00042C
:0110C000042B
:0110C100042A
:0110C2000429
:0110C3000428
:0110C4000427
:0110C5000426
:0110C6000425
:0110C7000424
:0110C8000423
:0110C9000422
:0110CA000421
:0110CB000420
:0110CC00041F
:0110CD00041E
:0110CE00041D
:0110CF00041C
:0110D000041B
:0110D100041A
:0110D2000419
:0110D3000418
:0110D4000417
:0110D5000416
:0110D6000415
:0110D7000414
:0110D8000413
:0110D9000412
:0110DA000411
:0110DB000410
:0110DC00040F
:0110DD00040E
:0110DE00040D
:0110DF00040C
:0110E000040B
:0110E100040A
:0110E2000409
:0110E3000408
:0110E4000407
:0110E5000406
:0110E6000405
:0110E7000404
:0110E8000403
:0110E9000402
:0110EA000401
:0110EB000400
:0110EC0004FF
:0110ED0004FE
:0110EE0004FD
:0110EF0004FC
:0110F00004FB
:0110F10004FA
:0110F20004F9
:0110F30004F8
:0110F40004F7
:0110F50004F6
:0110F60004F5
:0110F70004F4
:0110F80004F3
:0110F90004F2
:0110FA0004F1
:0110FB0004F0
:0110FC0007EC
:0110FD0007EB
:0110FE0007EA
:0110FF0007E9
:0111000007E7
:0111010007E6
:0111020007E5
:0111030007E4
:0111040007E3
:0111050007E2
:0111060007E1
:0111070007E0
:0111080007DF
:0111090007DE
:01110A0007DD
:01110B0007DC
:01110C0007DB
:01110D0007DA
:01110E0007D9
:01110F0007D8
:0111100007D7
:0111110007D6
:0111120007D5
:0111130007D4
:0111140007D3
:0111150007D2
:0111160007D1
:0111170007D0
:0111180007CF
:0111190007CE
:01111A0007CD
:01111B0007CC
:01111C0007CB
:01111D0007CA
:01111E0007C9
:01111F0007C8
:0111200007C7
:0111210007C6
:0111220007C5
:0111230007C4
:0111240007C3
:0111250007C2
:0111260007C1
:0111270007C0
:0111280007BF
:0111290007BE
:01112A0007BD
:01112B0007BC
:01112C0007BB
:01112D0007BA
:01112E0007B9
:01112F0007B8
:0111300007B7
:0111310007B6
:0111320007B5
:0111330007B4
:0111340007B3
:0111350007B2
:0111360007B1
:0111370007B0
:0111380007AF
:0111390007AE
:01113A0007AD
:01113B0007AC
:01113C0007AB
:01113D0007AA
:01113E0007A9
:01113F0007A8
:0111400007A7
:0111410007A6
:0111420007A5
:0111430007A4
:0111440007A3
:0111450007A2
:0111460007A1
:0111470007A0
:01114800079F
:01114900079E
:01114A00079D
:01114B00079C
:01114C00079B
:01114D00079A
:01114E000799
:01114F000798
:011150000797
:011151000796
:011152000795
:011153000794
:011154000793
:011155000792
:011156000791
:011157000790
:01115800078F
:01115900078E
:01115A00078D
:01115B00048F
:01115C00048E
:01115D00048D
:01115E00048C
:01115F00048B
:01116000048A
:011161000489
:011162000488
:011163000487
:011164000486
:011165000485
:011166000484
:011167000483
:011168000482
:011169000481
:01116A000480
:01116B00047F
:01116C00047E
:01116D00047D
:01116E00047C
:01116F00047B
:01117000047A
:011171000479
:011172000478
:011173000477
:011174000476
:011175000475
:011176000474
:011177000473
:011178000472
:011179000471
:01117A000470
:01117B00046F
:01117C00046E
:01117D00046D
:01117E00046C
:01117F00046B
:01118000046A
:011181000469
:011182000468
:011183000467
:011184000466
:011185000465
:011186000464
:011187000463
:011188000462
:011189000461
:01118A000460
:01118B00045F
:01118C00045E
:01118D00045D
:01118E00045C
:01118F00045B
:01119000045A
:011191000459
:011192000458
:011193000457
:011194000456
:011195000455
:011196000454
:011197000453
:011198000452
:011199000451
:01119A000450
:01119B00044F
:01119C00074B
:01119D00044D
:01119E00044C
:01119F00044B
:0111A000044A
:0111A1000449
:0111A2000448
:0111A3000447
:0111A4000446
:0111A5000445
:0111A6000444
:0111A7000443
:0111A8000442
:0111A9000441
:0111AA000440
:0111AB00043F
:0111AC00043E
:0111AD00043D
:0111AE00043C
:0111AF00043B
:0111B000043A
:0111B1000439
:0111B2000438
:0111B3000437
:0111B4000436
:0111B5000435
:0111B6000434
:0111B7000433
:0111B8000432
:0111B9000431
:0111BA000430
:0111BB00042F
:0111BC00042E
:0111BD00042D
:0111BE00042C
:0111BF00042B
:0111C000042A
:0111C1000429
:0111C2000428
:0111C3000427
:0111C4000426
:0111C5000425
:0111C6000424
:0111C7000423
:0111C8000422
:0111C9000421
:0111CA000420
:0111CB00041F
:0111CC00041E
:0111CD00041D
:0111CE00041C
:0111CF00041B
:0111D000041A
:0111D1000419
:0111D2000418
:0111D3000417
:0111D4000416
:0111D5000415
:0111D6000414
:0111D7000413
:0111D8000412
:0111D9000411
:0111DA000410
